:020000040800F2
:1000000028040020C1010008C10C0008BD0C000834
:10001000BF0C00081D0C00081914000800000000A7
:10002000000000000000000000000000BD0D0008FE
:100030001F0C000800000000C30C0008650F00083A
:10004000DB010008DB010008DB010008DB01000820
:10005000DB010008DB010008DB010008DB01000810
:10006000DB010008DB010008DB010008DB01000800
:10007000DB010008DB010008DB010008DB010008F0
:10008000DB010008DB010008DB010008DB010008E0
:10009000DB010008DB010008DB010008DB010008D0
:1000A000DB010008DB010008DB010008DB010008C0
:1000B000DB010008DB010008DB010008DB010008B0
:1000C000DB010008DB010008DB010008DB010008A0
:1000D000DB010008DB010008DB010008DB01000890
:1000E000DB010008DB010008DB010008DB01000880
:1000F000DB010008DB010008DB010008DB01000870
:10010000DB010008DB010008DB010008DB0100085F
:10011000DB010008DB010008DB010008DB0100084F
:10012000DB010008DB010008DB010008DB0100083F
:10013000DB010008DB010008DB010008DB0100082F
:10014000DB010008DB010008DB010008DB0100081F
:10015000DB010008DB010008DB010008DB0100080F
:10016000DB010008DB010008DB010008DB010008FF
:10017000DB010008DB010008DB010008DB010008EF
:10018000DB010008DB010008DB010008DB010008DF
:10019000DB010008DB010008DB010008DB010008CF
:1001A000DB010008DB010008DB010008DFF80CD0F0
:1001B00000F048FB004800475914000828040020BC
:1001C0000648804706480047FEE7FEE7FEE7FEE7F1
:1001D000FEE7FEE7FEE7FEE7FEE7FEE7690F000841
:1001E000AD0100080FB400B589B00BA800906A46B5
:1001F00003480A9900F0BEFA09B05DF814FB00004C
:10020000200000202DE9FF5F1D464FF0FF3BD5E9A0
:10021000014691465F464FF00008A9697F1C01988E
:100220008847296A824688470028F6D1BAF1FF3FFD
:100230000CD024F4C064002E19DD600614D5BAF188
:100240002B0F09D0BAF12D0F0ED103E0584604B0A0
:10025000BDE8F09F44F48064A9697F1C0198884739
:10026000761E8246002E02DDBAF1300F03D0B9F1BE
:10027000000F26D032E0A969761E44F400747F1C7A
:10028000019888478246002E05DDBAF1780F06D026
:10029000BAF1580F03D0B9F1000F10D01EE0B9F138
:1002A000000F02D0B9F1100F18D1A969761E24F4FD
:1002B00000747F1C019888478246102002E00820C5
:1002C00000E00A20814609E008FB0908A969761EBA
:1002D00044F400747F1C019888478246002E05DD97
:1002E0004946504600F037FA0028EDDAE9690198EE
:1002F0008847A00502D46FF00100A8E7E00725D1E8
:10030000600613D5600502D5C8F1000000E0404644
:1003100029680A1D2A600968220501D5087015E0C0
:10032000220701D5088011E008600FE02868011D50
:1003300029600068210502D580F8008006E02107C9
:1003400002D5A0F8008001E0C0F8008038467EE7C2
:100350002DE9FE4F804681EA0300C00F0C46009055
:1003600021F0004123F00045B8EB0200A94105D27D
:100370004046214690461C460B46024623F000406C
:10038000104347D0270DC7F30A00C3F30A51029068
:10039000401A019040286BDAC3F3130040F4801B2D
:1003A0000098924620B10023D2EB030A63EB0B0BBB
:1003B00001985946C0F14002504600F09BF90646AC
:1003C0000D4650465946019A00F0B3F910EB08006B
:1003D0006141002487EA115284EAE7731A4340D04E
:1003E000009A62B3019A012A4FEA075215DC001BFA
:1003F00061EB02014FF0004202EA0752CDE90042F0
:10040000001C41F5801132462B4600F0CCF903B0B8
:10041000BDE8F08F40462146F9E7001B61EB020181
:10042000001C41F5801300185B412018A2F500174D
:1004300047EB030140EAD570B6196D4111E06D0834
:100440004FEA360645EAC0754FEA0752001B61EBDA
:100450000201001C41F5801149084FEA30000019E3
:10046000514132462B4603B0BDE8F04F00F08CB945
:100470000098012240000023D0EB020263EBE073FE
:10048000009821464FEAE074B8EB000061EB0401EC
:10049000E9E783F000435BE781F0004158E72DE98D
:1004A000FE4F81EA030404F0004421F0004100946F
:1004B0004FF0000B23F0004350EA01045ED052EAF3
:1004C00003045BD0C3F30A54C1F30A552C44A4F2CD
:1004D000F3340194A0FB0254C1F3130141F48011E1
:1004E000C3F3130343F4801301FB024400FB034EE8
:1004F000840A970A44EA815447EA8357A4FB0768B1
:1005000002958D0A05FB07854FEA932C04FB0C54DA
:100510002705029D4FEA065847EA1637B5EB08054E
:100520006EEB070C870E920E47EA811742EA8312A0
:10053000A7FB0201B6EB0B0164EB00042B0D43EAB1
:100540000C335E1844EB1C50DA465146E7FB0201BF
:10055000C5F313044FEA0B3343EA14534FEA043252
:10056000019C43EA0603A4F10C040294009CCDE92B
:1005700000B400F018F903B0BDE8F08F0020014688
:10058000F9E72DE9F04D81EA030404F0004B21F076
:10059000004514464FF0000A23F0004150EA0502DE
:1005A00020D054EA01021DD0C5F30A570246C5F314
:1005B0001303C1F31300C1F30A5640F4801543F44A
:1005C0008013A7EB0608101BD64608F2FD3873EB24
:1005D000050002D308F1010801E092185B41B8F16F
:1005E000000F03DA00200146BDE8F08D00204FF433
:1005F0008011064684460EE0171B73EB050705D3F2
:10060000121B63EB050306434CEA010C49084FEA51
:10061000300092185B4150EA0107EDD152EA030025
:1006200012D082EA040083EA0501084305D0101BBA
:10063000AB4106D20122002306E000224FF0004326
:1006400002E06FF0010253101AEB06004CEB085168
:1006500010EB0A0041EB0B01BDE8F04D00F094B83F
:10066000C1F30A5210B5C1F3130140F2FF3341F454
:1006700080119A4201DA002010BD40F233439A42C1
:10068000A2F2334203DC524200F043F810BD904026
:1006900010BD000030B5041E71F1000404DB4FF002
:1006A0000044404264EB0101141E73F1000405DBB9
:1006B0001C464FF00043524263EB04038B4208BFD9
:1006C000824230BD30B5041E71F1000404DB4FF0EE
:1006D0000044404264EB0101141E73F1000405DB89
:1006E0001C464FF00043524263EB0403994208BF9B
:1006F000904230BD202A04DB203A00FA02F10020AB
:1007000070479140C2F1200320FA03F3194390404F
:100710007047202A04DB203A21FA02F000217047BA
:1007200021FA02F3D040C2F1200291400843194659
:100730007047202A06DBCB17203A41FA02F043EA41
:10074000E07306E041FA02F3D040C2F1200291408A
:100750000843194670473A2800D2303820F020026A
:10076000412A01D3A2F13700884201D34FF0FF3074
:1007700070470000024B9361024BD36100F090B8C8
:10078000391400088508000810B5141E73F1000420
:1007900008DA401C41F1000192185B411A4301D173
:1007A00020F0010010BD2DE9F04D92469B4611B19D
:1007B000B1FA81F202E0B0FA80F220329046FFF7FF
:1007C00099FF04460F4640EA0A0041EA0B015346EE
:1007D0005A46084313D0114653EA010019D0C8F114
:1007E00040025046FFF795FF05460E4650465946D3
:1007F0004246FFF77FFF084305D0012004E0204672
:100800003946BDE8F08D0020054346EAE0762C43EA
:1008100037430A986305E40AA0EB08000022FD0AAA
:1008200044EA47540A3002D500200146E9E70105B1
:1008300010196941DDE9084500196941BDE8F04D2D
:10084000A2E70000064C074D06E0E06840F0010317
:1008500094E8070098471034AC42F6D3FFF7AAFC9F
:10086000DC150008FC150008094910B508784C1C77
:1008700018B1401E0870205C10BD00210720ABBEDF
:10088000207010BD02490878421C0A7070470000B1
:100890002400002002681144137801601846704754
:1008A000D16004495161044911620021116111466E
:1008B00000F00AB895080008BD080008C0B24FF45F
:1008C000F05100F097B900002DE9F34F8BB04FF0D5
:1008D000000801F10C000C464FF0010B46460DF1EB
:1008E000080A0190626901210198904705002DD006
:1008F000252D2CD0216A8847C0B162690121019859
:100900009047216A88470028F7D1411E6269019803
:10091000904700E0761CA1690B988847216A8847B8
:100920000028F7D1E1690B988847DBE7A1690B98AC
:1009300088470746A84201D1761CD3E7E1690B98A6
:1009400088477F1C02D1B8F1000F6FD046E1002725
:1009500062693D463946019890472A2804D1626968
:100960000121019890470125DFF8849262690121F5
:1009700001989047A0F130010A290AD24F45E5DCE1
:1009800007EB870100EB4107303FDFD445F010054E
:10099000ECE7E90601D46FF000476C280AD04C2838
:1009A00014D0682815D06A280DD074281CD07A2855
:1009B0001AD01DE062690121019890476C2802D08D
:1009C00045F0040514E045F002050DE045F0200572
:1009D0000AE06269012101989047682802D045F039
:1009E000080505E045F4006562690121019890471A
:1009F000C4E9015765283DD019DC58287AD00CDCB1
:100A0000452837D004DC252826D0412831D131E0D3
:100A100046282FD047282CD12CE05B2877D061289E
:100A200028D063287CD0642823D15AE0D0E06F28F6
:100A300048D008DC66281DD067281BD0692821D043
:100A40006E2816D127E0702845D0732868D0752805
:100A500047D078280DD14DE0A1690B98884705460D
:100A600025283FF469AFE1690B9888476D1C3FF476
:100A70006AAFB3E023466A466FF001000B99AFF30B
:100A800000809EE045F040006060A80723464FF0DC
:100A9000000236D43EE0E8077FF447AF2068011D2E
:100AA00021600068290501D506701BE7290701D5DB
:100AB000068017E7A90703D5F117C0E9006111E720
:100AC00006600FE745F040006060A80723464FF03E
:100AD000080216D41EE040F60E0125EA010060600F
:100AE00016E045F040006060A80723464FF00A0278
:100AF00007D40FE045F040006060A80708D5234602
:100B000010226FF001000B99AFF3008059E007E06D
:100B1000234610226FF001000B99FFF773FB50E0A2
:100B20004FF000094F464B46632802D05B2806D0A1
:100B300040E0E80601D40120A06001273AE06269A4
:100B40000121019890475E2805D14FF001096269A3
:100B5000494601989047216939B900210A46534610
:100B600043F82120491C0829FADBB0B3216969B98F
:100B7000C11700EBD16253110AEB830122F01F026F
:100B8000821A01200B68904003430B6062690121C7
:100B9000019890475D28E8D1B9F1000F09D00020F5
:100BA000514651F82020D24341F82020401C08280B
:100BB000F7DB02AB224600976FF001000B99AFF311
:100BC000008000280CDA401C08D1BBF1000F05D0D2
:100BD0004FF0FF300DB0BDE8F08FFFE74046F9E77A
:100BE000E90701D108F1010806444FF0000B79E64E
:100BF000CCCCCC0C7F2801D9002208E0064A02EBBD
:100C00005002C007127800D1120902F00F02012031
:100C100090400840704700009C150008FEE77047B0
:100C20002DE9F041002201274FF0030C07FA02F5ED
:100C30000B682B40AB422CD1066853000CFA03F42E
:100C4000A64306600E79D0F800809E4046EA08066A
:100C500006600E79012E01D0022E12D18668A643BD
:100C600086604E79D0F808809E4046EA0806866085
:100C70004668AE43466045688E799640B6B23543C5
:100C80004560C568A543C560CC799C40C3681C43DA
:100C9000C460521C102AC9D3BDE8F08110B54B07BF
:100CA000DB0E9A40C90800EB8100016A0F249C40CA
:100CB000A1430162016A1143016210BDFEE7FEE734
:100CC00070477047054A002903D01168014311603D
:100CD000704711688143116070470000303802404E
:100CE000054A002903D0116801431160704711685B
:100CF000814311607047000040380240054A0029D6
:100D000003D011680143116070471168814311607D
:100D1000704700004438024070B5244B196801F058
:100D20000C01234C00291ED0224E04291DD0082975
:100D30001DD00460196801F0F00109091E4A545CD5
:100D40000168E14041601C6804F4E054A40A145DA9
:100D500021FA04F484601B6803F460435B0BD25CEB
:100D6000D140C16070BD0460E4E70660E2E70F4A6D
:100D7000121F1168C1F38055116801F03F0135B1B0
:100D8000B6FBF1F11468C4F38814614305E0B4FBC9
:100D9000F1F11468C4F3881461431268C2F301428C
:100DA000521C5200B1FBF2F10160C3E70838024067
:100DB0000024F40040787D0100000020704700000E
:100DC00010B59FED0E1B51EC100B53EC112BFFF7E0
:100DD000BFFA9FED0C1B53EC112BFFF760FB9FED4F
:100DE0000B1B53EC112BFFF7CCFBFFF739FC81B247
:100DF000BDE81040074800F00FBA000000000000F6
:100E00000080464000000000000059400000000043
:100E100000002240000C004010B59FED0E1B51EC6D
:100E2000100B53EC112BFFF793FA9FED0C1B53ECB7
:100E3000112BFFF734FB9FED0B1B53EC112BFFF72E
:100E4000A0FBFFF70DFC81B2BDE810404FF08040E1
:100E500000F0E2B900000000008046400000000001
:100E600000005940000000000000224010B500F0D2
:100E700007F900F0A7F844F620645A21204600F054
:100E800021F92046BDE810405A2100F0BBB800000F
:100E90001CB50021019100912E4A106840F4803069
:100EA00010604FF4A043106800F4003000900198E7
:100EB000401C0190009810B901989842F3D1106835
:100EC000800302D50120009000E0009100980128E5
:100ED0003FD120484030016841F0805101601E49F7
:100EE000086840F4404008601A480830036803600E
:100EF000036843F400430360036843F4A0530360B2
:100F0000041F164B2360136843F08073136013684B
:100F10009B01FCD50A6842F480320A604A68D20319
:100F2000FCD50A6842F400320A604A689203FCD594
:100F30000B4A40F205711160016821F00301016064
:100F4000016841F0020101600168C1F381010229D9
:100F5000FAD11CBD0038024000700040195A400709
:100F6000003C02407047000010B51248016841F48F
:100F7000700101601048016841F0010101600E4AF2
:100F800000210832116002680C4B1A400260031DF8
:100F90000B4A1A60026822F48022026006480C3074
:100FA0000160FFF775FF03494FF00060803908606A
:100FB00010BD000088ED00E000380240FFFFF6FEA3
:100FC000103000241CB501210846FFF77BFE2020CD
:100FD000009002208DF8040000208DF8060001200A
:100FE0008DF8070003208DF80500054C012205212E
:100FF0002046FFF753FE69462046FFF711FE1CBD51
:101000000000024030B589B004460D460121084673
:10101000FFF766FE641E07946D1EADF8185000249D
:10102000ADF82040ADF81A404FF0804506A928469B
:1010300000F0F4F86021ADF804100121ADF80610BD
:1010400040F2DC510391ADF8104001A9284600F0B0
:10105000A9F80821284600F0D9F80121284600F017
:1010600071F801221146284600F092F80121284625
:1010700000F080F80121284600F070F809B030BD7A
:101080001CB501218020FFF71DFE4FF48060009009
:1010900002208DF8040000208DF8060001208DF854
:1010A000070003208DF80500054C02220A21204686
:1010B000FFF7F4FD69462046FFF7B2FD1CBD0000B6
:1010C000001C024030B589B004460D4601210820BD
:1010D000FFF706FE641E07946D1EADF8185000243D
:1010E000ADF82040ADF81A40154D06A9284600F08D
:1010F00095F86021ADF804100121ADF8061040F21A
:10110000DC510391ADF8104001A9284600F04AF8DF
:101110000821284600F07AF80121284600F012F84C
:1011200001221146284600F033F80121284600F03C
:1011300021F80121284600F011F809B030BD000067
:10114000000C0040002904D0018841F0800101809A
:101150007047018821F0800101807047002904D088
:10116000018841F0010101807047018821F00101EF
:1011700001807047002905D030F8441F41F4004138
:101180000180704730F8441FC1F30E0101807047A1
:10119000002A03D082890A438281704782898A4368
:1011A0008281704730B5028C22F001020284058CE6
:1011B0008388028B22F0700222F003020C88144311
:1011C00025F002028D8915434A882A430D4DA84215
:1011D00002D00D4DA8420FD122F00805CA892A433A
:1011E00022F004058A882A4323F4807323F40073D1
:1011F0000D8A1D434B8A2B43838004838968416396
:10120000028430BD0000014000040140028B22F046
:1012100008020A43028370474163704730B5028871
:10122000164C174DA0420DD0A8420BD0B0F1804F04
:1012300008D0144B984205D0134B984202D0134B60
:10124000984203D122F070034A881A43104B984207
:1012500006D0104B984203D022F440730A891A43F7
:1012600002804A68C2620A880285A04201D0A84270
:1012700001D1897A01860121818230BD00000140BF
:10128000000401400004004000080040000C004041
:101290000010004000140040002904D0818941F46E
:1012A000005181817047818921F40051818170470B
:1012B0000246002012880A4200D001207047000038
:1012C0007FB504460D46208A20F44051E888084343
:1012D0002082A08941F20C618843A9882A891143A0
:1012E0006A8902431143A181A08A20F44071A88930
:1012F0000843A0826846FFF70FFD1E48844202D0D3
:101300001D48844201D1039800E00298A189090494
:1013100008D500EBC00101EB001029684900B0FBC3
:10132000F1F007E000EBC00101EB00102968890033
:10133000B0FBF1F06422B0FBF2F109010B096FF090
:1013400018056B4300EB8300A3891D044FF03203A3
:1013500007D503EBC000B0FBF2F000F00700084334
:1013600006E003EB0010B0FBF2F000F00F000843C2
:1013700020817FBD00100140001401408088C0F32F
:1013800008007047F0B587B0064601210846FFF710
:1013900099FC01211020FFF7B1FC00248DF81A40C0
:1013A00001208DF81B0002258DF819508DF818507A
:1013B00041020591164F05A93846FFF731FC8DF81B
:1013C00018506802059005A93846FFF729FC072246
:1013D0000A213846FFF762FC072209213846FFF749
:1013E0005DFC0196ADF80840ADF80A40ADF80C4040
:1013F000ADF810400C20ADF80E00064C01A92046B7
:10140000FFF75EFF01212046FFF746FF07B0F0BD62
:101410000000024000100140FEE702E008C8121F71
:1014200008C1002AFAD170477047002001E001C1CD
:10143000121F002AFBD1704710B5064C2021204610
:10144000FFF736FF0028F9D02046BDE81040FFF72F
:1014500095BF0000001001402DED068B82B00020EA
:1014600001904FF4E130FFF78DFFFFF7FFFC9FED98
:101470003F8B404C9FED409B01A941A0FEF7B2FE7F
:101480000198012819D19FED3F0B53EC102B94EDDF
:10149000020B51EC100BFFF7FDF80ED894ED020B88
:1014A00053EC182B51EC100BFEF752FF41EC100BD4
:1014B00084ED020BFFF784FCDEE7019802281BD1C4
:1014C00094ED020B53EC182B51EC100BFFF7FAF8CC
:1014D00012D894ED020BB0EE48AAF0EE68AA53ECD5
:1014E0001A2B51EC100BFEF7D4FF41EC100B84EDDE
:1014F000020BFFF765FCBFE70198032819D19FEDA8
:10150000230B53EC102B94ED000B51EC100BFFF759
:10151000C1F80ED894ED000B53EC192B51EC100BC5
:10152000FEF716FF41EC100B84ED000BFFF774FC87
:10153000A2E7019804289FD19FED160B53EC102BC6
:1015400094ED000B51EC100BFFF7BCF894D894ED20
:10155000000B53EC192B51EC100BFEF79AFF41ECEA
:10156000100B84ED000BFFF757FC85E7000000002F
:101570000000F03F10000020000000000000E03FED
:1015800025640000000000000060664000000000CC
:10159000008057400000000000002640DDDDDDDD5A
:1015A000DCBBBBDDDDDDDDDDDDDDDDDD98888888F4
:1015B000888888887777777777888888855555569B
:1015C00066666666666666666668888883333332F2
:1015D00022222222222222222228888DFC15000883
:1015E00000000020280000001A140008241600083B
:1015F00028000020000400002A1400080000000059
:1016000001020304010203040607080900000000A8
:10161000008056400000000000805640000000009E
:0416200000000000C6
:04000005080001AD41
:00000001FF
